:1000000000040010DF000000D5000000D700000051
:1000100000000000000000000000000000000000E0
:1000200000000000000000000000000000000000D0
:100030000000000000000000D9000000DB0000000C
:10004000DD000000DD00000000000000DD00000019
:10005000DD000000DD0000000000000000000000E6
:10006000DD000000DD0000009D020000DD0000005A
:10007000DD000000DD00000000000000DD000000E9
:100080000000000000000000000000000000000070
:100090000000000000000000000000000000000060
:1000A000DD000000DD000000DD000000DD000000DC
:1000B000DD000000DD000000DD000000DD000000CC
:1000C000F4060000000000101C0000001C000010DE
:1000D00008000000FEE7FEE7FEE7FEE7FEE738B5B2
:1000E000104B114A93420CD218685C680C331A1FEB
:1000F000116800228A42F4D2155815510432F9E7EA
:1001000008330A4A934208D21868596800228A4282
:10011000F6D2002414500432F9E700F031FA00F06E
:10012000A7FAFEE7C0000000CC000000D4000000E9
:10013000FEE7C046074B40201A1DD16F0143D1672F
:100140005968054A0A405A6059688022D2000A4319
:100150005A60704700800440FFFBFFFF0120A0238E
:1001600088401B06011C002A01D0882200E08A2258
:100170009201995070470000064B074A41211A60CE
:10018000064A4942DA60064A1A61E0225200995052
:100190007047C04600C000400400FFFFFFFFFF089B
:1001A000030DFFFF08B5021C0E210020FFF7D6FF4C
:1001B00008BD08B5021C07210020FFF7CFFF08BDCE
:1001C00010B5054C031C0A1C201C191C00F0C4F9B6
:1001D0006069C0B210BDC0460080054038B5FFF769
:1001E000A9FF9620800100F0FDF9A0252648802473
:1001F0002D06A40100F062F806212448002200F038
:1002000091F9FFF7B9FF2B59802213432B512A593B
:100210008023DB0113432B5100F080F82B5904227B
:100220001343FA202B51400000F06EF802201021F9
:1002300000F0D8F8164800F067F9164800F056F9B3
:10024000A024882324069B010425FA20E5504000C1
:1002500000F05AF88A239B01FA20E550400000F094
:1002600053F80D4C201C00F005F900F06DF8051E48
:10027000FBD100F09CF8281C235C0133235401308F
:100280001028F9D1DCE7C046307500000080054039
:1002900005000010000000100A000010054B0122AC
:1002A000D968114204D0DA60034B1A6801321A602F
:1002B0007047C046004000401C0000100E4B10B5B7
:1002C000191DCC6F8022D2001443CC675C6880215A
:1002D0008C435C605C6821435960084B00211960C5
:1002E000074B802118601868090601431960012135
:1002F0009960044B1A6010BD008004401C0000107F
:100300000040004000E100E0034B00221A601A6840
:100310008242FCD37047C0461C00001008B5002084
:10032000FFF740FF0120FFF744FF08BD10B5002094
:10033000FFF73FFF0121FF20FFF742FF041C0120D0
:10034000FFF737FF201C10BD08B5FFF7EFFF302384
:10035000184043425841C0B208BD70B5061C0D1C80
:1003600000246B1E9C4206DA305D00210134FFF749
:1003700027FFE4B2F5E77519013D28780121FFF761
:100380001FFF70BD38B5051C00200C1CFFF711FFC6
:100390001F200540202028430021FFF711FF0121E5
:1003A000201CFFF70DFF0120FFF703FF38BD08B544
:1003B0000020FFF7FEFE0121E220FFF701FF0120F0
:1003C000FFF7F7FE70210720FFF7DCFF0020FFF7A3
:1003D000E9FE00200B21FFF7D5FF0120FFF7E2FE29
:1003E00008BD000010B51D4C031C21700520191C10
:1003F000FFF7C8FF11200021FFF7C4FF217812206A
:10040000FFF7C0FF13200021FFF7BCFF14200021DD
:10041000FFF7B8FF15200021FFF7B4FF16200021D9
:10042000FFF7B0FF0620011CFFF7ACFF00200821FA
:10043000FFF7A8FF01200321FFF7A4FF02200321FB
:10044000FFF7A0FF04204F21FFF79CFF1C20002195
:10045000FFF798FFFFF7ABFF10BDC046200000106C
:1004600008B507207021FFF78DFF00200A21FFF754
:1004700089FF08BD10B5041C0020FFF793FEFFF7AD
:10048000EFFF0020FFF795FE0121E120FFF798FE26
:100490000120FFF78EFE0020FFF78BFE0021A02039
:1004A000FFF78EFE054B201C1978FFF756FF012041
:1004B000FFF77FFE0120FFF775FE10BD2000001042
:1004C00070B5061C0020141C0D1CFFF772FE1F20C7
:1004D0000640202030430021FFF772FE281C211C1B
:1004E000FFF73BFF0120FFF764FE70BD10B5041C51
:1004F0000020FFF757FE211C05220B20FFF7E0FF2D
:100500000120FFF74FFE10BD10B5041C211C0A206E
:100510000522FFF7D5FF1020211C0522FFF7D0FF91
:1005200010BD00000B4B70B51C1DE66F80252D0122
:100530003543E5675D680124A5435D605D6825433B
:100540005D60042341624260036003681C430460F1
:1005500070BDC04600800440052310B50360836869
:100560009C07FCD5E223012A00D0E023DB041943D9
:1005700081618368DA07FCD54069C0B210BD000014
:10058000144A1548D16F154B014310B5D1670022AD
:100590001A6401225A64596C104AC807FBD52421F9
:1005A00091608E21890050588024A0435050D86813
:1005B00001210A4A0842FAD00320106751675A6F96
:1005C000D107FCD5054B02229A67054B00221A6120
:1005D00010BDC04604800440800004000080044038
:1005E00000000440F7B51E4C1E4F231C943301221B
:1005F000009008261A603B1DDE67231DD96F8022FC
:10060000D2010A43DA676368174DB34363606368D6
:1006100000993343636004232B60144800F02FF8E3
:10062000231CF033FF22013828621A601868296AF7
:100630001B680130DB4301930C4B01315843009B95
:10064000F434594300F01BF8019A822310181B015F
:100650002060AB603E602B68012213432B60F7BD26
:100660000080044000E100E000400640703839009E
:1006700008B5FFF7B3FD08BD03000B4321D40029E3
:1006800031D00122D207030901E009011209994280
:10069000FBD9430801E0490052089942FBD900E028
:1006A0004908401A07D35241FAD301461046704711
:1006B00049084018F7D29218FAD34018014610465C
:1006C0007047CB0F00D04942021000D54042534042
:1006D00008B5FFF7D4FF0CBC521000D34042002AEB
:1006E00000D549421847F446002000F001F8604761
:0406F0007047FFFF51
:1006F400D7D7D7D7D7E7E7E7E7E70102030405062B
:0C0704000708090A0B0C0D0E0F10FFFF78
:04000003000000DF1A
:00000001FF
