:1000000000040010DF000000D5000000D700000051
:1000100000000000000000000000000000000000E0
:1000200000000000000000000000000000000000D0
:100030000000000000000000D9000000DB0000000C
:10004000DD000000DD00000000000000DD00000019
:10005000DD000000DD0000000000000000000000E6
:10006000DD000000DD000000C1020000DD00000036
:10007000DD000000DD00000000000000DD000000E9
:100080000000000000000000000000000000000070
:100090000000000000000000000000000000000060
:1000A000DD000000DD000000DD000000DD000000DC
:1000B000DD000000DD000000DD000000DD000000CC
:1000C00098090000000000101C0000001C00001037
:1000D00008000000FEE7FEE7FEE7FEE7FEE738B5B2
:1000E000104B114A93420CD218685C680C331A1FEB
:1000F000116800228A42F4D2155815510432F9E7EA
:1001000008330A4A934208D21868596800228A4282
:10011000F6D2002414500432F9E700F06DFB00F031
:10012000EBFBFEE7C0000000CC000000D4000000A4
:10013000FEE7C046074B40201A1DD16F0143D1672F
:100140005968054A0A405A6059688022D2000A4319
:100150005A60704700800440FFFBFFFF0120A0238E
:1001600088401B06011C002A01D0882200E08A2258
:100170009201995070470000064B074A41211A60CE
:10018000064A4942DA60064A1A61E0225200995052
:100190007047C04600C000400400FFFFFFFFFF089B
:1001A000030DFFFF08B5021C0E210020FFF7D6FF4C
:1001B00008BD08B5021C07210020FFF7CFFF08BDCE
:1001C00010B5044C011C201C00F006FB6069C0B295
:1001D00010BDC0460080054038B5FFF7ABFF962044
:1001E000800100F03BFBA0252D4880242D06A401B2
:1001F00000F076F806212B48002200F0D3FAFFF732
:10020000BBFF2B59802213432B512A598023DB013A
:1002100013432B5100F094F82B5904221343FA2076
:100220002B51400000F082F80220102100F0E0F88D
:100230001D4800F06AF91D4800F059F9A0248823F0
:1002400024069B010425FA20E550400000F06EF8DA
:100250008A239B01FA20E550400000F067F814481B
:1002600000F092FA0024134D211C625D1248013403
:1002700000F08AFA102CF6D1281C00F0FFF800F0EC
:1002800074F8041EFBD10D4800F07EFA00F097F8D8
:10029000231CEA5C0132EA540133102BF9D1CDE77B
:1002A00030750000008005400500001000000010BF
:1002B0007A0900000A000010810900008A09000084
:1002C000054B0122D968114204D0DA60034B1A6849
:1002D00001321A607047C046004000401C00001008
:1002E0000E4B10B5191DCC6F8022D2001443CC6781
:1002F0005C6880218C435C605C6821435960084BDA
:1003000000211960074B8021186018680906014315
:10031000196001219960044B1A6010BD00800440EF
:100320001C0000100040004000E100E0034B0022F0
:100330001A601A688242FCD37047C0461C00001045
:1003400008B50020FFF72EFF0120FFF732FF08BDA0
:1003500010B50020FFF72DFFFF20FFF731FF041C31
:100360000120FFF726FF201C10BD08B5FFF7F0FFA6
:100370003023184043425841C0B208BD70B5051C37
:100380000E1C041C631BDBB2B34204D22078FFF7BF
:1003900017FF0134F6E770BD38B5051C00200C1CB2
:1003A000FFF707FF1F20054020202843FFF708FF25
:1003B000201CFFF705FF0120FFF7FBFE38BD08B545
:1003C0000020FFF7F6FEE220FFF7FAFE0120FFF71C
:1003D000F0FE70210720FFF7DFFF0020FFF7E2FEAD
:1003E00000200B21FFF7D8FF0120FFF7DBFE08BD3F
:1003F00010B51C4C052021700221FFF7CDFF112004
:100400000021FFF7C9FF21781220FFF7C5FF132055
:100410000021FFF7C1FF14200021FFF7BDFF1520C9
:100420000021FFF7B9FF16200021FFF7B5FF0620D6
:10043000011CFFF7B1FF00200821FFF7ADFF0120ED
:100440000321FFF7A9FF02200321FFF7A5FF0420E6
:100450004F21FFF7A1FF1C200021FFF79DFFFFF7B1
:10046000AEFF10BD2000001008B507207021FFF777
:1004700093FF00200A21FFF78FFF08BD10B5041C71
:100480000020FFF78FFEFFF7EFFF0020FFF791FE40
:10049000E120FFF795FE0120FFF78BFE0020FFF71C
:1004A00088FEA020FFF78CFE054B201C1978FFF773
:1004B00065FF0120FFF77DFE0120FFF773FE10BDF1
:1004C0002000001070B5061C00200D1C141CFFF746
:1004D00070FE1F20064020203043FFF771FE281CCD
:1004E000211CFFF74BFF0120FFF763FE70BD10B525
:1004F000041C0020FFF756FE211C05220B20FFF7ED
:10050000E1FF0120FFF74EFE10BD10B5041C211CB9
:100510000A200522FFF7D6FF1020211C0522FFF735
:10052000D1FF10BD08B500F0DFF908BD08B50028FF
:1005300005D00368197002680132026002E0081CED
:10054000FFF7F0FF08BDF7B5141C00900191002AD9
:100550000FDD0A1C0199501A1178002901D00132CF
:10056000F8E7A04201DA241A00E00C1C30279A07B1
:1005700000D420270025D9070CD4251C002D05DD2B
:100580000098391CFFF7D2FF013DF7E7E543ED176F
:100590002540641B2E1C019A531B995D002904D031
:1005A0000098FFF7C3FF0136F5E7251C002D05DD98
:1005B0000098391CFFF7BAFF013DF7E7E043C01789
:1005C00004403019FEBDF0B587B0071C00920C1E28
:1005D00009D103AB30221A7059700C9A191C0D9B6B
:1005E000FFF7B1FF42E000220192934207D0009B47
:1005F0000A2B04D1914202DA01224C4201920022DC
:100600006B466E46DA751636751C002C11D0201C10
:10061000009900F078F9092902DD0E9B3A3BC918D0
:1006200030313170201C009900F06DF9013E041C3E
:10063000EAE7019B002B12D00C9A002A0BD00D9BED
:100640009B0708D5381C2D21FFF770FF0C9A012459
:10065000013A0C9203E0013D2D232B700024381C3D
:10066000291C0C9A0D9BFFF76EFF201807B0F0BDF8
:10067000F0B589B0061C0D1C059200242B78002BC8
:1006800005D0252B73D169786A1C002905D1002E6D
:1006900074D0336800221A7070E0252966D00023D8
:1006A0002D2901D1AA1C0123151C2A78302A03D137
:1006B000022201351343F8E700222978081C30385C
:1006C000C7B2092F04D80A214A4301351218F4E7AA
:1006D000732907D10599081D09680590002941D1A2
:1006E00028493FE064290ED10599081D0968019346
:1006F0006123059000920293301C0A220123FFF728
:1007000062FF241838E0782907D10599081D059063
:10071000096801930092612308E058290AD10599DC
:10072000081D059009680193009241230293301C33
:1007300010220BE075290BD10599081D096801935A
:100740006123059000920293301C0A220023D6E711
:10075000632911D10598011D0068059107A908704A
:1007600000204870301CFFF7EEFECAE7151C297800
:10077000301CFFF7DBFE013401357FE7201C09B098
:10078000F0BDC046910900000FB407B504AA08CA1D
:100790000020191C0192FFF76BFF03B008BC04B0E6
:1007A000184700000B4B70B51C1DE66F80252D010E
:1007B0003543E5675D680124A5435D605D682543B9
:1007C0005D60042341624260036003681C4304606F
:1007D00070BDC046008004400523036083689A070B
:1007E000FCD5E223DB04194381618368DA07FCD579
:1007F0004069C0B270470000144A1548D16F154BCC
:10080000014310B5D16700221A6401225A64596C61
:10081000104AC807FBD5242191608E2189005058C9
:100820008024A0435050D86801210A4A0842FAD0D7
:100830000320106751675A6FD107FCD5054B022280
:100840009A67054B00221A6110BDC046048004401F
:10085000800004000080044000000440F7B51E4CF6
:100860001E4F231C94330122009008261A603B1D62
:10087000DE67231DD96F8022D2010A43DA676368DD
:10088000174DB34363606368009933436360042387
:100890002B60144800F037F8231CF033FF22013896
:1008A00028621A601868296A1B680130DB430193CB
:1008B0000C4B01315843009BF434594300F023F8AA
:1008C000019A822310181B012060AB603E602B68E8
:1008D000012213432B60F7BD0080044000E100E0DB
:1008E0000040064070383900024B9A685107FBD52A
:1008F000D86170470040064008B5FFF76DFC08BDA1
:1009000003000B4321D4002931D00122D20703096F
:1009100001E0090112099942FBD9430801E04900AD
:1009200052089942FBD900E04908401A07D35241C6
:10093000FAD301461046704749084018F7D292187A
:10094000FAD34018014610467047CB0F00D04942F9
:10095000021000D54042534008B5FFF7D4FF0CBC4D
:10096000521000D34042002A00D549421847F446AD
:10097000002000F001F86047704753656E640D0A6F
:100980000025643A2025640A0D00446F6E650D0A47
:0809900000286E756C6C290053
:10099800D7D7D7D7D7E7E7E7E7E701020304050684
:0C09A8000708090A0B0C0D0E0F10FFFFD2
:04000003000000DF1A
:00000001FF
