:1000000000100010DF000000D5000000D700000045
:1000100000000000000000000000000000000000E0
:1000200000000000000000000000000000000000D0
:100030000000000000000000D9000000DB0000000C
:10004000DD000000DD00000000000000DD00000019
:10005000DD000000DD0000000000000000000000E6
:10006000DD000000DD00000061040000DD00000094
:10007000DD000000DD00000000000000DD000000E9
:100080000000000000000000000000000000000070
:100090000000000000000000000000000000000060
:1000A000DD000000DD000000DD000000DD000000DC
:1000B000DD000000DD000000DD000000DD000000CC
:1000C000BC0C0000000000100C0000000C00001030
:1000D00048000000FEE7FEE7FEE7FEE7FEE738B572
:1000E000104B114A93420CD218685C680C331A1FEB
:1000F000116800228A42F4D2155815510432F9E7EA
:1001000008330A4A934208D21868596800228A4282
:10011000F6D2002414500432F9E700F0A5FC00F0F8
:1001200023FDFEE7C0000000CC000000D40000006A
:10013000FEE7C0460023437103708370C3700371F0
:10014000C37583754176037670470000074B4020E6
:100150001A1DD16F0143D1675968054A0A405A6098
:1001600059688022D2000A435A60704700800440D8
:10017000FFFBFFFF0120A02388401B06011C002A73
:1001800001D0882200E08A22920199507047000035
:10019000064B074A41211A60064A4942DA60064A7C
:1001A0001A61E022520099507047C04600C00040DA
:1001B0000400FFFFFFFFFF08030DFFFF08B5021C4F
:1001C0000E210020FFF7D6FF08BD08B5021C07214D
:1001D0000020FFF7CFFF08BD10B5054C031C0A1C1B
:1001E000201C191C00F02CFC6069C0B210BDC04678
:1001F0000080054037B56C4607340025211C0122DC
:100200000520257000F056FA2178384800F0F0FB00
:10021000211C0122112000F04DFA2178344800F011
:10022000E7FB211C0122122000F044FA217831481A
:1002300000F0DEFB211C0122132000F03BFA2178A4
:100240002D4800F0D5FB211C0122142000F032FAC9
:1002500021782A4800F0CCFB211C0122152000F057
:1002600029FA2178264800F0C3FB211C0122162020
:1002700000F020FA2178234800F0BAFB211C01226B
:10028000062000F017FA21781F4800F0B1FB281C67
:10029000211C012200F00EFA21781C4800F0A8FB76
:1002A0000120021C211C00F005FA2178184800F0FA
:1002B0009FFB211C0122022000F0FCF92178154847
:1002C00000F096FB211C0122042000F0F3F92178B4
:1002D000114800F08DFB211C01221C2000F0EAF9DE
:1002E00021780E4800F084FB37BDC046EA0B0000C1
:1002F000F60B0000050C0000140C0000230C00009D
:10030000320C0000410C0000500C00005F0C00009B
:100310006C0C0000780C0000880C0000990C0000A8
:1003200038B5FFF713FF9620800100F0CFFBA02522
:10033000424880242D06A40100F0A2F8062140487E
:10034000002200F063FBFFF723FF2B5980221343A9
:100350002B512A598023DB0113432B5100F0C0F8A5
:100360002B59042213432B51364800F0AFF836487E
:1003700000F03EFB0721022000F02EF9334C201C38
:1003800000F0F6F9201C00F0E5F9314D0021281CA1
:100390000024FFF7CFFE2F48AC7700F029FBFFF7D2
:1003A00029FF02210122201CFFF7E4FEFA20400071
:1003B00000F08CF80221221C201CFFF7DBFEFA2043
:1003C000400000F083F802210122201CFFF7D2FE3A
:1003D000FA20400000F07AF8201C0221221CFFF7CE
:1003E000C9FEFA20400000F071F800F084F90028FE
:1003F000FBD001256C4000200221221CFFF7BAFE31
:10040000281C00F063F8144D281C00F02DF900F0B2
:100410007DF80028FBD100F0C5F82B7801332B7054
:10042000AB790133AB7100F073F9011E02D00B48B8
:1004300000F0DEFAFA208000D5E7C04630750000F3
:1004400000800540B80B0000A50C0000070000105C
:1004500017000010A70C000000000010A90C0000FD
:10046000054B0122D968114204D0DA60034B1A68A7
:1004700001321A607047C046004000400C00001076
:100480000E4B10B5191DCC6F8022D2001443CC67DF
:100490005C6880218C435C605C6821435960084B38
:1004A00000211960074B8021186018680906014374
:1004B000196001219960044B1A6010BD008004404E
:1004C0000C0000100040004000E100E0034B00225F
:1004D0001A601A688242FCD37047C0460C000010B4
:1004E00008B50020FFF76AFE0120FFF76EFE08BD89
:1004F00010B50020FFF769FE0121FF20FFF76CFE19
:10050000041C0120FFF761FE201C10BD08B5FFF799
:10051000EFFF3023184043425841C0B208BDF7B541
:10052000051C0E1C01920024019B013B9C4208DA31
:10053000285D0021FFF750FE371901343870E4B20E
:10054000F2E7E85C0121F618FFF746FE3070F7BDD0
:1005500070B5061C0D1C00246B1E9C4206DA305D33
:1005600000210134FFF738FEE4B2F5E77519013DCB
:1005700028780121FFF730FE70BD38B5051C00203A
:100580000C1CFFF722FE1F200540202028430021DD
:10059000FFF722FE0121201CFFF71EFE0120FFF7BE
:1005A00014FE38BD08B50020FFF70FFE0121E22040
:1005B000FFF712FE0120FFF708FE70210720FFF76A
:1005C000DCFF0020FFF7FAFD00200B21FFF7D5FF2D
:1005D0000120FFF7F3FD08BD10B51D4C031C217071
:1005E0000520191CFFF7C9FF11200021FFF7C5FFE7
:1005F00021781220FFF7C1FF13200021FFF7BDFF74
:1006000014200021FFF7B9FF15200021FFF7B5FFE7
:1006100016200021FFF7B1FF0620011CFFF7ADFFF8
:1006200000200821FFF7A9FF01200321FFF7A5FF04
:1006300002200321FFF7A1FF04204F21FFF79DFFB8
:100640001C200021FFF799FFFFF7ACFF10BDC0464B
:100650005100001008B507207021FFF78EFF002021
:100660000A21FFF78AFF08BD10B5041C0020FFF720
:10067000A5FDFFF7EFFF0020FFF7A7FD0121E12017
:10068000FFF7AAFD0120FFF7A0FD0020FFF79DFD69
:100690000021A020FFF7A0FD054B201C1978FFF7D3
:1006A00057FF0120FFF791FD0120FFF787FD10BDE7
:1006B0005100001070B5061C00200C1C151CFFF723
:1006C00084FD1F2030400021FFF786FD2A1C201CDE
:1006D000211CFFF724FF0120FFF777FD70BD13B544
:1006E0006C4607341720211C0122FFF7E3FF207816
:1006F0000123184016BD08B5FFF7FAFE031C0120C0
:100700005A0604D4FFF7EBFF43425841C0B208BD7C
:1007100013B56C4607340820211C0122FFF7CAFFDD
:1007200020780F23184016BD70B5061C0020141C3D
:100730000D1CFFF74AFD1F200640202030430021FA
:10074000FFF74AFD281C211CFFF702FF0120FFF7DD
:100750003CFD70BD10B5041C0020FFF72FFD211CCF
:1007600005220B20FFF7E0FF0120FFF727FD10BD5A
:1007700010B5041C211C0A200522FFF7D5FF10200C
:10078000211C0522FFF7D0FF10BD08B500F0E4F9E9
:1007900008BD08B5002805D0036819700268013249
:1007A000026002E0081CFFF7F0FF08BDF7B5141C5B
:1007B00000900191002A0FDD0A1C0199501A11784E
:1007C000002901D00132F8E7A04201DA241A00E042
:1007D0000C1C30279A0700D420270025D9070CD4F9
:1007E000251C002D05DD0098391CFFF7D2FF013DC7
:1007F000F7E7E543ED172540641B2E1C019A531BB8
:10080000995D002904D00098FFF7C3FF0136F5E792
:10081000251C002D05DD0098391CFFF7BAFF013DAE
:10082000F7E7E043C01704403019FEBDF0B587B0CC
:10083000071C00920C1E09D103AB30221A705970AC
:100840000C9A191C0D9BFFF7B1FF42E000220192A8
:10085000934207D0009B0A2B04D1914202DA012275
:100860004C42019200226B466E46DA751636751CB4
:10087000002C11D0201C009900F07DF9092902DD1F
:100880000E9B3A3BC91830313170201C009900F0A2
:1008900072F9013E041CEAE7019B002B12D00C9A6E
:1008A000002A0BD00D9B9B0708D5381C2D21FFF784
:1008B00070FF0C9A0124013A0C9203E0013D2D23B4
:1008C0002B700024381C291C0C9A0D9BFFF76EFF1F
:1008D000201807B0F0BD0000F0B589B0061C0D1C53
:1008E000059200242B78002B05D0252B73D1697835
:1008F0006A1C002905D1002E74D0336800221A70BA
:1009000070E0252966D000232D2901D1AA1C0123DE
:10091000151C2A78302A03D1022201351343F8E747
:1009200000222978081C3038C7B2092F04D80A21C0
:100930004A4301351218F4E7732907D10599081DB8
:1009400009680590002941D128493FE064290ED16A
:100950000599081D0968019361230590009202938F
:10096000301C0A220123FFF761FF241838E07829A0
:1009700007D10599081D059009680193009261232C
:1009800008E058290AD10599081D059009680193C6
:10099000009241230293301C10220BE075290BD1E9
:1009A0000599081D0968019361230590009202933F
:1009B000301C0A220023D6E7632911D10598011DB6
:1009C0000068059107A9087000204870301CFFF7E7
:1009D000EDFECAE7151C2978301CFFF7DAFE01345A
:1009E00001357FE7201C09B0F0BDC046B20C000005
:1009F0000FB407B504AA08CA0020191C0192FFF71A
:100A00006BFF03B008BC04B0184700000B4B70B577
:100A10001C1DE66F80252D013543E5675D680124C7
:100A2000A5435D605D6825435D60042341624260CB
:100A3000036003681C43046070BDC046008004402E
:100A4000052310B5036083689C07FCD5E223012AC7
:100A500000D0E023DB04194381618368DA07FCD509
:100A60004069C0B210BD0000144A1548D16F154B43
:100A7000014310B5D16700221A6401225A64596CEF
:100A8000104AC807FBD5242191608E218900505857
:100A90008024A0435050D86801210A4A0842FAD065
:100AA0000320106751675A6FD107FCD5054B02220E
:100AB0009A67054B00221A6110BDC04604800440AD
:100AC000800004000080044000000440F7B51E4C84
:100AD0001E4F231C94330122009008261A603B1DF0
:100AE000DE67231DD96F8022D2010A43DA6763686B
:100AF000174DB34363606368009933436360042315
:100B00002B60144800F037F8231CF033FF22013823
:100B100028621A601868296A1B680130DB43019358
:100B20000C4B01315843009BF434594300F023F837
:100B3000019A822310181B012060AB603E602B6875
:100B4000012213432B60F7BD0080044000E100E068
:100B50000040064070383900024B9A685107FBD5B7
:100B6000D86170470040064008B5FFF7D9FB08BDC3
:100B700003000B4321D4002931D00122D2070309FD
:100B800001E0090112099942FBD9430801E049003B
:100B900052089942FBD900E04908401A07D3524154
:100BA000FAD301461046704749084018F7D2921808
:100BB000FAD34018014610467047CB0F00D0494287
:100BC000021000D54042534008B5FFF7D4FF0CBCDB
:100BD000521000D34042002A00D549421847F4463B
:100BE000002000F001F86047704752465F43483AE2
:100BF0002025640A0D0052585F50575F50303A204C
:100C000025640A0D0052585F50575F50313A202535
:100C1000640A0D0052585F50575F50323A202564E5
:100C20000A0D0052585F50575F50333A2025640A2E
:100C30000D0052585F50575F50343A2025640A0D1A
:100C40000052585F50575F50353A2025640A0D0016
:100C500052465F53455455503A2025640A0D0043CF
:100C60004F4E4649473A2025640A0D00454E5F41E4
:100C7000413A2025640A0D00454E5F5258414444D4
:100C8000523A2025640A0D0053455455505F524591
:100C900054523A2025640A0D0044594E50443A20DB
:100CA00025640A0D004900530052543A2025640A75
:0C0CB0000D00286E756C6C2900FFFFFF22
:0C0CBC005F606162636465D7D7D7D7D74B
:04000003000000DF1A
:00000001FF
